:020000040800F2
:10000000B004002045010008E11C0008B11A0008F6
:10001000DD1C000841050008B91E000800000000B2
:10002000000000000000000000000000E91C0008C3
:100030004505000800000000E51C0008ED1C000854
:100040005F0100085F0100085F0100085F01000810
:100050005F0100085F0100085F0100085F01000800
:100060005F0100085F0100085F0100085F010008F0
:100070005F0100085F0100085F0100085F010008E0
:100080005F0100085F0100085F0100085F010008D0
:100090005F0100085F0100085F0100085F010008C0
:1000A0005F0100085F0100085F0100085F010008B0
:1000B0005F0100085F0100085F0100085F010008A0
:1000C0005F0100085F0100085F0100085F01000890
:1000D0005F0100085F0100085F0100085F01000880
:1000E0005F0100085F0100085F0100085F01000870
:1000F0005F0100085F0100085F0100085F01000860
:100100005F0100085F0100085F0100085F0100084F
:100110005F0100085F0100085F0100085F0100083F
:100120005F0100085F0100085F0100085F0100082F
:10013000DFF80CD000F0F2F9004800476D1F00080E
:10014000B00400200648804706480047FEE7FEE767
:10015000FEE7FEE7FEE7FEE7FEE7FEE7FEE7FEE777
:10016000F51C000831010008D2B201E000F8012BB3
:10017000491EFBD270470022F6E710B513460A4627
:1001800004461946FFF7F0FF204610BD421C10F848
:10019000011B0029FBD1801A70472DE9FE4F8046D4
:1001A00081EA0300C00F0C46009021F0004123F0CB
:1001B0000045B8EB0200A94105D2404621469046D1
:1001C0001C460B46024623F00040104347D0270D43
:1001D000C7F30A00C3F30A510290401A0190402865
:1001E0006BDAC3F3130040F4801B0098924620B1F1
:1001F0000023D2EB030A63EB0B0B01985946C0F1C5
:100200004002504600F0CDF806460D46504659468D
:10021000019A00F0E5F810EB08006141002487EA3C
:10022000115284EAE7731A4340D0009A62B3019AEC
:10023000012A4FEA075215DC001B61EB02014FF067
:10024000004202EA0752CDE90042001C41F580114C
:1002500032462B4600F0E5F803B0BDE8F08F40468B
:100260002146F9E7001B61EB0201001C41F58013F8
:1002700000185B412018A2F5001747EB030140EA84
:10028000D570B6196D4111E06D084FEA360645EAA2
:10029000C0754FEA0752001B61EB0201001C41F5DB
:1002A000801149084FEA30000019514132462B466F
:1002B00003B0BDE8F04F00F0A5B80098012240005F
:1002C0000023D0EB020263EBE073009821464FEA73
:1002D000E074B8EB000061EB0401E9E783F0004350
:1002E0005BE781F0004158E70EB540F233410291DF
:1002F0000021CDE900110A460B4600F092F803B048
:1003000000BD70B5C1F30A5201F000450024C1F3ED
:10031000130140F2FF3341F480119A4201DA0020C8
:1003200070BD40F233439A42A2F2334203DC5242A0
:1003300000F046F800E090402C43F1D0404270BD00
:100340002DE9F05F0546002092469B46884606460A
:10035000814640241BE0284641464746224600F09D
:100360002FF853465A46C01A914110D311461846E9
:10037000224600F016F82D1A67EB01084F46224678
:100380000120002100F00DF817EB00094E41201E5E
:10039000A4F10104DFDC484631462A464346BDE865
:1003A000F09F202A04DB203A00FA02F10020704777
:1003B0009140C2F1200320FA03F3194390407047A3
:1003C000202A04DB203A21FA02F00021704721FAAA
:1003D00002F3D040C2F12002914008431946704711
:1003E000202A06DBCB17203A41FA02F043EAE073F9
:1003F00006E041FA02F3D040C2F1200291400843E6
:100400001946704710B5141E73F1000408DA401C39
:1004100041F1000192185B411A4301D120F0010023
:1004200010BD2DE9F04D92469B4611B1B1FA81F213
:1004300002E0B0FA80F220329046FFF7B2FF0446A5
:100440000F4640EA0A0041EA0B0153465A46084368
:1004500013D0114653EA010019D0C8F140025046AA
:10046000FFF7AEFF05460E46504659464246FFF797
:1004700098FF084305D0012004E020463946BDE836
:10048000F08D0020054346EAE0762C4337430A9876
:100490006305E40AA0EB08000022FD0A44EA475481
:1004A0000A3002D500200146E9E70105101969412B
:1004B000DDE9084500196941BDE8F04DA2E770B5D6
:1004C00021F0004303430CD0C1F30A550024D5EBBF
:1004D000040564EB0403D617AD1AB34102DB002018
:1004E000014670BD201841EB025170BD30B5041EAD
:1004F00071F1000404DB4FF00044404264EB010161
:10050000141E73F1000405DB1C464FF000435242F9
:1005100063EB04038B4208BF824230BD064C074D9B
:1005200006E0E06840F0010394E8070098471034C3
:10053000AC42F6D3FFF700FE5427000874270008EA
:10054000FEE7000070470000B0B5044600F004F973
:10055000054640F20A00C2F200000078611C18BF94
:10056000044400BF00F0F8F8401BA042FAD3B0BD2D
:100570002DE9F04F82B0A0F1804241F6004640F2F2
:10058000004EA2F58432C4F201060625C4F2010E23
:100590004FEAB227B04208BF052500244FF00108FA
:1005A0000F234FF0000A4FF0000B052F38BF4FEA22
:1005B000B225009508E000BF0AF1010ABAF1100F58
:1005C00004F1040400F0BF800A6808FA0AFC12EA89
:1005D0000C09F1D04E684FF6FF72C1F2100296423C
:1005E00010DC122E50D8DFE806F0330A41454F4F99
:1005F0004F4F4F4F4F4F4F4F4F4F4F484C00D1F839
:100600000CB041E04FF6FF72C1F2210296420FDCBE
:100610000022C1F2110296421AD00022C1F2120247
:10062000964215D00022C1F22102964210D02BE052
:100630000022C1F2220296420AD00022C1F2310207
:10064000964205D00022C1F2320296421CD100BF70
:100650008A6842B1012A14BFC0F814C0C0F810C0A3
:100660004FF0080B10E04FF0040B0DE0CA6802F1E8
:10067000080B09E04FF0000B06E0CA6802F1040B1A
:1006800002E0CA6802F10C0B22460646B9F5807FEB
:1006900024BF203A0436376803FA02F5AF430BFA59
:1006A00002F23A433260CA79D2067FF585AF41F251
:1006B0001807C4F202073A684FF6084342F00102F5
:1006C0003A603A68CFF6FF7302F001020192019A94
:1006D0002AF0030272440F25D75804F00C06B540E7
:1006E000AF43009D05FA06F63743D7504E680F23F7
:1006F000F203DEF8002054BF22EA090242EA0902AE
:10070000CEF80020DEF80420B70354BF22EA090225
:1007100042EA0902CEF80420F702DEF8082054BFAE
:1007200022EA090242EA0902B70240F20C47CEF877
:100730000820C4F201073A6854BF22EA090242EADB
:1007400009023A6038E702B0BDE8F08F002A08BF1E
:10075000090401617047000040F2AC00C2F20000E1
:1007600000687047B0B578B3044690F83D0028B9EA
:10077000002084F83C00204600F0F8FC242084F897
:100780003D002068016821F00101016000F0BCFE1D
:1007900048F28041C0F21E0140F60012D4F804E095
:1007A00088424FF00001C0F23D0248F2A16C4FF0C8
:1007B000000338BF01219042C0F2010C38BF012371
:1007C000E64538BF0B460BB10120B0BD4DF6836145
:1007D000C4F21B31A0FB0112930C4FF4967144F646
:1007E000D3555943C1F26205A1FB05152168E645C1
:1007F0004B604FEA951338BF930C5A1C48F2A06324
:10080000C0F201039E450A620BD801384FEA4E023E
:10081000B0FBF2F001306FF31F30042898BF0420C2
:100820002DE0A368A0F1010CABB119200EFB00F084
:10083000BCFBF0F00422013062F31F30000513D03E
:10084000A3B119200EFB00F0BCFBF0F00422013034
:1008500062F31F3011E00EEB4E00BCFBF0F00130F4
:100860006FF31F300005EBD1012008E00EEB4E00C6
:10087000BCFBF0F001306FF31F3040F40040C86162
:10088000D4E9070204F10C05104308602DCD104394
:10089000886045EA0300C860086840F0010008600D
:1008A00000202021206484F83D10206384F83E005D
:1008B000B0BD00002DE9F04F81B01F4616468846B6
:1008C0000446FFF749FF94F83D1020291BD1DDF8BD
:1008D000289083462068806910F002050FD0FFF74A
:1008E0003BFFA0EB0B001A28F4D30020202120634B
:1008F00084F83D1084F83E0084F83C001DB994F85B
:100900003C00012803D1022001B0BDE8F08F012195
:10091000206884F83C100168C90703D1016841F0E0
:1009200001010160016821F400610160222184F865
:100930003D10102184F83E10002121640021CFF6E3
:10094000FF7166626785E162618D2185E16A0268F7
:1009500011F5803F42F48062026018BF012948D13E
:10096000016841F480710160406910F0010022D1FA
:10097000B9F1000F80F0010611D009F1010706E07E
:100980002068406910F0010080F0010613D1002FAB
:10099000F6D0FFF7E1FEA0EB0B004845F0D90020B0
:1009A0002021206384F83D10F10784F83E0084F88C
:1009B0003C0040F0B7802069B0F5804F03D148F08B
:1009C0000100C1B27FE0062000EAD81A20680AF1CF
:1009D000F00101614169090721D44169490500F12C
:1009E0009080B9F1000F00F0958019F1010706D051
:1009F0000EE00429B4D0216B1129B1D0B4E72068EE
:100A0000416909070BD4416949057AD4002FF7D011
:100A1000FFF7A2FEA0EB0B004845F0D97AE0206872
:100A20005FFA88F101614169890718D44169490574
:100A300067D4B9F1000F6DD019F1010708D1206812
:100A4000416989070BD4416949055AD4002FF7D071
:100A5000FFF782FEA0EB0B004845F0D95AE00020DA
:100A600000902068416900918169009100990168B6
:100A700041F480710160406910F0010021D1B9F1A9
:100A8000000F80F0010711D009F1010606E020688F
:100A9000406910F0010080F0010712D1002EF6D05D
:100AA000FFF75AFEA0EB0B004845F0D900202021AB
:100AB000206384F83D10F90784F83E0084F83C0078
:100AC00030D14AF0F101206801614169890734D4CD
:100AD0004169490515D4B9F1000F1BD019F1010680
:100AE00008D120684169890727D44169490508D49C
:100AF000002EF7D0FFF730FEA0EB0B004845F0D9F1
:100B000008E0016841F4007101606FF480614161A7
:100B10000420206400202021206384F83D1084F804
:100B20003C00206C216C002084F83C000320042948
:100B300008BF012001B0BDE8F08F208D02280FD042
:100B4000012821D0A0BB00200090206841690091BD
:100B5000816900910099016841F40071016033E0FE
:100B60002068016841F400610160002072B60090C5
:100B7000206841690091816900910099016821F420
:100B80008061016062B61FE02068016821F4806125
:100B90000160002072B6009020684169009181696F
:100BA00000910099016841F40071016062B60BE0A8
:100BB0002068016841F48061016000210091416971
:100BC0000091806900900098208D002800F0078136
:100BD000012509F101074FF00008042818D2022866
:100BE00029D0012843D120684169490600F1E780F6
:100BF0004169C90600F10F81B9F1000F00F00681CB
:100C0000FFF7AAFDA0EB0B004845ECD9FEE000BFC2
:100C100020684169490646D44169C90600F1EF8060
:100C2000B9F1000F00F0E680FFF796FDA0EB0B0096
:100C30004845EDD9DEE02068406910F0040085EAFF
:100C4000900A564607D04FE02068406910F0040033
:100C500085EA900648D1002FF6D0B9F1000F36D0C2
:100C6000FFF77AFDA0EB0B004845EDD930E0206896
:100C7000406910F0040085EA900A564607D053E018
:100C80002068406910F0040085EA90064CD1002FDE
:100C9000F6D0B9F1000F3AD0FFF75EFDA0EB0B00E4
:100CA0004845EDD934E02068616A00694A1C6262F7
:100CB0000870208D01382085608D0138608520689E
:100CC0004169490740F187800069616A7AE05646C8
:100CD0002020C4F8308084F83D00F00784F83E807E
:100CE00084F83C8040F0AB8072B62068616A02688C
:100CF00042F40072026000694A1C62620870208D32
:100D000001382085608D0138608562B657E056460F
:100D10002020C4F8308084F83D00F00784F83E803D
:100D200084F83C8040F08B802068016821F4806169
:100D3000016072B62068616A00694A1C62620870CC
:100D4000208D01382085608D0138608520684069DC
:100D500010F0040022D185EA900A564606E0206889
:100D6000406910F0040085EA900617D1002FF6D0F4
:100D7000B9F1000F06D0FFF7EFFCA0EB0B004845E0
:100D8000EDD900E056462020C4F8308084F83D00BC
:100D9000F00784F83E8084F83C8050D12068616A76
:100DA000026842F40072026000694A1C62620870C4
:100DB000208D01382085608D0138608562B62068FD
:100DC000616A00694A1C62620870208D01382085C2
:100DD000608D01386085208D00287FF4FEAE2020D4
:100DE00084F83D00002084F83E0084F83C0001B007
:100DF000BDE8F08F206C40F02000206411E06FF01F
:100E0000100141610020206420630AE0206C40F062
:100E10002000206405E06FF0100141610020206493
:100E20002063202084F83D00002084F83C00216CE1
:100E30000120202908BF032001B0BDE8F08F032066
:100E400001B0BDE8F08F00002DE9F04782B09A466E
:100E5000164688460446FFF77FFC94F83D1020298B
:100E60001DD1DDF8289005462068806910F0020742
:100E70000FD0FFF771FC401B1A28F5D3002020216A
:100E8000002F206384F83D1084F83E0084F83C0075
:100E900060D194F83C00012806D1022600E0022629
:100EA000304602B0BDE8F0870121206884F83C108C
:100EB0000168C90703D1016841F0010101600168BF
:100EC00021F400610160212184F83D10102184F893
:100ED0003E10002121640021CFF6FF716662A4F864
:100EE0002AA0E162618D2185E16A11F5803F18BF7A
:100EF000012946D1016841F480710160406910F018
:100F0000010021D1B9F1000F80F0010610D009F1E4
:100F1000010706E02068406910F0010080F001063A
:100F200012D1002FF6D0FFF717FC401B4845F1D92E
:100F300000202021206384F83D10F10784F83E0052
:100F400084F83C0040F0D0802069B0F5804F03D198
:100F5000FE212DE00226A3E7062000EAD811206832
:100F6000F03101614169090721D44169490500F166
:100F7000AA80B9F1000F00F0AF8019F1010606D088
:100F80000FE00429B6D0216B1229B3D0B6E7206850
:100F9000416909070BD44169490500F19480002E8D
:100FA000F6D0FFF7D9FB401B4845F0D994E0FF216C
:100FB000206801EA08010161416989071AD4416981
:100FC000490500F18080B9F1000F00F0858019F12A
:100FD000010609D1206800BF416989070AD4416927
:100FE000490570D4002EF7D0FFF7B6FB401B4845EB
:100FF000F0D971E00026019620684169019180696D
:1010000001900198208D002850D009F1010700BF00
:10101000206850F8141F09060DD4016849056CD4E6
:10102000002FF5D0B9F1000F6CD0FFF795FB401BF6
:101030004845EDD966E0626AD4F800E0501C606271
:101040001078CEF81000608D01386085B4F828C0A3
:101050007046ACF10103238550F8141F49070CD5E5
:1010600019040AD0911C61625178CEF81010618D7C
:1010700001396185ACF102012185016803E000BFFF
:10108000206850F8141F49070DD40168490550D451
:10109000002FF5D0B9F1000F50D0FFF75DFB401BDA
:1010A0004845EDD94AE0208D0028B1D1206801687B
:1010B00041F400710160202084F83D0084F83E6016
:1010C00084F83C60ECE6016841F4007101606FF463
:1010D000806141610420206400202021206384F885
:1010E0003D1084F83C00206C206C0021032684F81D
:1010F0003C10042808BF0126D2E66FF4806101602D
:10110000042002E0206C40F0200020640020202118
:10111000206384F83D1084F83C00206C042806D13C
:1011200020680126016841F400710160B8E60326D9
:10113000B6E66FF480610160042002E0206C40F0AC
:101140002000206400202021206384F83D1084F8D2
:101150003C00206C042806D120680126016841F477
:10116000007101609CE603269AE6000010B586B087
:10117000016845F20040C4F2000081424FF00001D6
:10118000CDE90411CDE9021101D006B010BD41F244
:101190001004C4F20204A16800F5384041F00801CF
:1011A000A160A16801F0080101910199C02102919B
:1011B000122103910321059102A9FFF7D9F9E068F3
:1011C00040F40010E060E06800F400100190019825
:1011D000206840F4001020606420FFF7B5F9206813
:1011E00020F40010206006B010BD000040F20A009C
:1011F00040F2AC01C2F20000C2F2000100780A68BD
:10120000104408607047000080B542F20000C4F24C
:101210000200016841F010010160032000F07EF837
:10122000002000F005F800F02BF8002080BD000041
:10123000B0B540F20A02C2F2000240F20401127894
:10124000C2F200014FF47A730968B3FBF2F204466C
:10125000B1FBF2F1084600F007FB0F2C4FF001053F
:101260000CD858B94FF0FF3021460022002500F07D
:1012700029F840F20C00C2F2000004602846B0BD1C
:1012800082B041F21800C4F202000168022241F06B
:1012900001010160016801F00101019101994168BA
:1012A00041F080514160406800F08050009000980B
:1012B0000420C4F20100016862F31A61016002B007
:1012C0007047000010B54EF60C5CCEF2000CDCF856
:1012D0000030C3F3022E8EF00704042C28BF042430
:1012E000BEF103034FF0FF3E0EFA04F438BF0023B3
:1012F000A14399400EFA03F39A43114300F00F0201
:1013000000F160430901043A03F564436244002894
:1013100048BF02F10C03197010BD00004EF60C51CD
:10132000CEF200010A684FF6FF031A4060F30A226A
:1013300042F0806040F0FD70086070472DE9F04396
:1013400081B042F20008C4F20208D8F800200D462D
:1013500002F00701A94204460CD2D8F8000020F0A0
:1013600007002843C8F80000D8F8000000F0070084
:10137000A84262D1206841F204078107C4F2020743
:1013800011D5410703D5396841F4E061396001079F
:1013900003D5396841F4605139603968A26821F099
:1013A000F00111433960C0073CD1D8F8000000F0CB
:1013B0000700A8420CD9D8F8000020F00700284305
:1013C000C8F80000D8F8000000F00700A84275D166
:1013D0002068410705D53968E26821F4E0611143CE
:1013E0003960000706D53868216920F4605040EA6A
:1013F000C10038603A6802F00C00082841F2002071
:10140000C0F27A0067D142F24273C2F38341C0F660
:101410000003595CD20353D440F60010C0F23D00E3
:10142000484358E06068022809D001280DD157F8D8
:10143000041C89030FD401245FE001245DE057F808
:10144000041C890107D4012457E057F8041C8907BC
:1014500001D4012451E0396821F0030108433860C8
:10146000FFF77AF961680646012941F288390DD003
:1014700002291ED1386800F00C00082895D0FFF72B
:101480006BF9801B4845F5D9032436E0386800F035
:101490000C0004283FF489AFFFF75EF9801B484534
:1014A000F4D9032429E000BFFFF756F9801B484513
:1014B00027D8386810F00C0FF6D176E701241CE02D
:1014C0003A6842F22873C2F34042C0F600039A5CC5
:1014D0004843B0FBF2F0396842F22A72C1F30311BB
:1014E000C0F60002515C0024C84040F20401C2F280
:1014F000000108600020FFF79BFE204601B0BDE818
:10150000F0830324F9E7000040F2040041F20401F3
:10151000C2F20000C4F202010068096842F23A72A5
:10152000C1F30221C0F60002515CC84070470000C0
:1015300040F2040041F20401C2F20000C4F20201D0
:101540000068096842F23A72C1F3C221C0F6000293
:10155000515CC840704700002DE9F04182B004465C
:10156000007841F20006C007C4F2020643D070685A
:1015700000F00C00042817D0706800F00C00082858
:1015800002D17068C0030FD465682DB1B5F5A02FE6
:1015900010D0B5F5803F11D0306820F48030306035
:1015A000306820F480200CE03068800323D5606828
:1015B00008BB9BE0306840F480203060306840F425
:1015C00080303060FFF7C8F8002D054610D000BF0E
:1015D000306880030FD4FFF7BFF8401B6428F7D9A9
:1015E00004E100BFFFF7B8F8401B642800F2FE805A
:1015F00030688003F6D42078800718D5706810F022
:101600000C0F07D0706800F00C00082827D1706814
:10161000C00324D43068800702D52069012865D131
:101620003068616920F0F80040EAC100306020783D
:1016300000074FD5A06940B30020C4F24220012129
:10164000C0F88014FFF788F8054600BF706A80076D
:101650002DD4FFF781F8401B0228F7D9C6E0206996
:10166000002840F20000C4F2422000F098800121DE
:101670000160FFF771F8054630688007D0D4FFF7A6
:101680006BF8401B0228F7D9B0E00020C4F24220DA
:101690000021C0F88014FFF75FF80546706A8007E4
:1016A00018D5FFF759F8401B0228F7D99EE040F201
:1016B0000400C2F20000006844F6D351C1F2620196
:1016C000A0FB0101480A019000BF0198411E0028BB
:1016D0000191F9D1207840070CD4E569002D00F084
:1016E000BE80706800F00C00082836D1012002B0DE
:1016F000BDE8F081F06910F0805808D1F06940F041
:101700008050F061F06900F080500090009847F23E
:101710000007C4F200073868C00510D4386840F4E8
:1017200080703860FFF718F8054600BF3868C005BC
:1017300005D4FFF711F8401B6428F7D956E0E56897
:101740001DB1052D3AD0012D3CD0306A20F00100AA
:101750003062306A20F0040037E00027C4F24227EC
:1017600000203866FEF7F8FF022D05460CD100BFB9
:10177000306880014FD5FEF7EFFF401B02284FF085
:101780000300F5D968E000BF3068800167D5FEF737
:10179000E3FF401B03284FF00300F5D35CE000217A
:1017A0000160FEF7D9FF0546306880077FF53FAF3F
:1017B000FEF7D2FF401B0228F6D917E0306A40F04E
:1017C00004003062306A40F001003062FEF7C4FF6E
:1017D000002D054641F2883711D000BF306A8007DE
:1017E00010D4FEF7B9FF401BB842F7D9032002B06E
:1017F000BDE8F081FEF7B0FF401BB842F6D8306A72
:101800008007F7D4B8F1000F7FF467AFF06920F0DC
:101810008050F06161E7206AB0F5803F05D17168C2
:10182000A26821F40031114371607168626A21F489
:10183000741110430843706001203866FEF78CFF76
:10184000044600BF3068800109D4FEF785FF001B05
:1018500002284FF00300F5D902B0BDE8F081002066
:1018600002B0BDE8F0810000411E0020B0EB116F16
:101870001CBF012070474EF21002CEF200025160F0
:101880004EF62351CEF20001F0230B700721906039
:1018900011607047002804BF0120704710B504464E
:1018A00090F8390028B9002084F83800204600F06C
:1018B00021F8242084F839002068C16821F40051FF
:1018C000C160204600F03EFA2068016921F4904191
:1018D0000161416921F02A014161C16841F400516F
:1018E000C16000202021E06384F8391084F83A10A8
:1018F00010BD000070B586B040F60004C4F20104CB
:10190000006804F54051002688420596CDE903663B
:10191000029601D006B070BD41F21800C4F2020078
:10192000016802AD41F480410160016801F4804129
:1019300001910199016841F00401016000682946A4
:1019400000F00400019001984FF400700290022012
:101950000390032005902046FEF70AFE4FF48060B6
:10196000CDE90206204629460496FEF701FE06B0A0
:1019700070BD00002DE9F041044690F839002028A0
:101980000ED10F4600294FF0010000F08E80164660
:10199000002A08BFBDE8F08194F83800012802D180
:1019A0000220BDE8F081012084F838000020E063C7
:1019B00021201D4684F83900FEF7CEFEA684E68479
:1019C000E18C8046002944D06E1C05E017F8010B1D
:1019D00021684860E08CE0B3E08C0138E084A068C6
:1019E000B0F5805F06D120680068000618D4A6B163
:1019F0006DB936E0206800680006E7D43EB305BB49
:101A00002FE000BF016809060AD4002EFAD0FEF7C5
:101A1000A3FEA0EB0800A84223D82068F2E700BF8D
:101A20003888216922686FF35F200029506014BF55
:101A300001370237CEE700BF01680906C6D4002E81
:101A4000FAD0FEF789FEA0EB0800A84209D820686A
:101A5000F2E720680068400620D415B16E1C10D053
:101A600015E02068C16821F4D071C160416921F09E
:101A700001014161202084F8390084F83A000320F4
:101A800010E020680168490608D4002EFAD0FEF75D
:101A900063FEA0EB0800A842F3D9E2E7202084F817
:101AA00039000020002184F83810BDE8F0810000E2
:101AB000FEE700002DE9F04F81B043F2311943F207
:101AC000311A43F2311B0C4605460026C3F2300999
:101AD000C3F2301AC3F2310B4FF031374FF0000828
:101AE00006E02118C3F2311222500E7108F10108EC
:101AF0005FFA88F0285C662800F29080DFE810F03A
:101B0000EB008E008E008E008E008E008E008E0008
:101B10008E008E008E008E008E008E008E008E0055
:101B20008E008E008E008E008E008E008E008E0045
:101B30008E008E008E008E008E008E008E008E0035
:101B40008E008E008E008E008E008E008E008E0025
:101B50008E008E008E008E008E008E008E008E0015
:101B6000A500AC00B200B800BE00C400CA00D3009B
:101B7000D900E2008E008E008E008E008E008E0056
:101B80008E006D00670073007A00810088008E006F
:101B90008E008E008E008E008E008E008E008E00D5
:101BA0008E008E008E008E008E008E008E008E00C5
:101BB0008E008E008E008E008E008E008E008E00B5
:101BC0008E006D00670073007A0081008800204657
:101BD000FEF7DCFA43F2310283E72046FEF7D6FA3D
:101BE00043F231025BE02046FEF7D0FA211844F8B8
:101BF00000907AE72046FEF7C9FA211844F800A0C1
:101C000073E72046FEF7C2FA211844F800B06CE7EB
:101C10002046FEF7BBFA2118275066E746F26540DA
:101C2000C0F22100E06046F27450C7F26340A06049
:101C300042F27200C6F26450606047F24520C6F678
:101C40007270206008F1010852E72046FEF79EFA04
:101C500021184FF0303247E72046FEF797FA43F25B
:101C6000300234E02046FEF791FA43F2300216E0EB
:101C70002046FEF78BFA43F2300232E72046FEF7A9
:101C800085FA43F2301219E02046FEF77FFA43F25C
:101C900030121CE02046FEF779FA43F23012211888
:101CA000C3F2310220E72046FEF770FA43F2301209
:101CB00017E72046FEF76AFA43F231022118C3F211
:101CC000300211E72046FEF761FA43F23102211893
:101CD000C3F2301208E701B0BDE8F08FFEE7000064
:101CE00070470000704700007047000080B5FFF7A4
:101CF0007DFA80BD41F20000C4F2020001680022BA
:101D000041F0010101604168CFF6FF0211404160DE
:101D100001684FF6FF72CFF6F6621140016001686C
:101D200021F480210160416821F4FE0141604FF4FB
:101D30001F0181604EF60850CEF200004FF00061A6
:101D4000016070472DE9F04F81B00446006804F14E
:101D500008030ECB0769194327F440573A43026141
:101D6000626941F20C631143C26848F21F5B9A43F7
:101D70001143C1604169A26921F44071114341617D
:101D800043F60001C4F201018842C5F2EB1B3FD0CB
:101D9000FFF7BAFB6168192778438900B0FBF1F0BF
:101DA000A0FB0B016FF00F0000EA5106FFF7ACFB40
:101DB000616878438900B0FBF1F5FFF7A5FB616826
:101DC00078438900B0FBF1F04FF06408A0FB0B01F1
:101DD000480900FB1850322101EB0010A0FB0B0159
:101DE000F02000EA51100644FFF78EFB616878434B
:101DF0008900B0FBF1F5FFF787FB61687843890044
:101E0000B0FBF1F0A0FB0B01480900FB185045E0C6
:101E1000FFF78EFB61684FF0190A00FB0AF089009A
:101E2000B0FBF1F0A0FB0B016FF00F0000EA5108CE
:101E3000FFF77EFB616800FB0AF08900B0FBF1F65A
:101E4000FFF776FB616800FB0AF08900B0FBF1F058
:101E50004FF06409A0FB0B01480900FB1960322117
:101E600001EB0010A0FB0B01F02000EA511000EB89
:101E70000806FFF75DFB616800FB0AF08900B0FB14
:101E8000F1F7FFF755FB616800FB0AF08900B0FB32
:101E9000F1F0A0FB0B01480900FB1970322101EBA6
:101EA0000010A0FB0B01C1F3431021683043886090
:101EB00001B0BDE8F08F0000FEE7000040F2A50091
:101EC000C2F200000021017101607047022827D092
:101ED000012836D000281CBF00207047023900209E
:101EE000052200BF31F8023F013A1844C0B2F9D1CF
:101EF00040F2AA01C2F2000118B1052814BF087807
:101F000001200A78824218BF087040F2A401C2F290
:101F100000010A78052A22BF00220A707047704724
:101F200040F2AA00C2F200000178002904BF01219A
:101F3000017040F2A501C2F20001002008710860A2
:101F4000704740F2AA00C2F200000178012904BFE4
:101F50000021017040F2A500C2F2000001210171D0
:101F60004FF00131016000207047000096B040F64C
:101F700000464FF00008C4F20106ADF81A80FFF7E2
:101F800043F90CAF38462821FEF7F5F84FF48030BE
:101F90000225CDE90D08CDE913504FF4E0100124DE
:101FA00015903846CDF82C80CDE90988CDE9078811
:101FB0000C941094FFF7D0FA0F2007A981E82101B3
:101FC0004FF48060CDE90A0807A80221FFF7B6F9AF
:101FD00041F21800CDE90E88CDE90C88C4F2020068
:101FE0000168012241F0100101600168202501F023
:101FF000100107910799016841F00401016001682F
:1020000001F0040107910799016841F0080101609E
:102010000068202100F00800079007983046FEF77E
:1020200095FBCDE90C5403200CAC0F9030462146B3
:10203000CDF83880FEF79CFA40F2100048F2A0611B
:10204000A6F53843C2F20000C0F201014FF480420D
:10205000C0E90031C0E90288C0E90428C0E9068867
:10206000C0F82080FEF77EFB40F2640006F5305396
:10207000C2F200004FF4E1310C22C0E90031C0E9A6
:102080000288C0E90482C0E90688FFF703FC40F239
:10209000000904F10F00C3F6F0790DF1080B01906F
:1020A00040F21004C2F2000440F208022046462129
:1020B000C2F2000201234FF4FA758DF84080CDE999
:1020C0000E88CDE90C888DF81880CDF81480ADF815
:1020D0001080CDE902880095FEF7B6FEB420FEF729
:1020E00033FA204646210DF11A0202230095FEF72D
:1020F000E1FBBDF81A0005AD000404BA284630A182
:10210000224600F067F828460CA9FFF7D3FC019E91
:102110000025002005E000BF0135102DA6F10106C5
:1021200014D031783129F7D180B2FEF7DDF882463C
:102130000F46002049462A4600F0BCFA52463B466C
:10214000FEF72BF8FEF7DDF8E6E700BF82B207A83E
:102150001DA100F03FF8FFF7B1FEB4F5617F4FF02D
:1021600000046FF0010598BF012400BF0BEB0500D0
:102170004480FA20FEF7E8F90235082DF6D1002058
:102180005946FFF7A3FE421E40F60040C4F201008C
:102190004FF0200118BF0122FEF7D8FA07AC204605
:1021A000FDF7F4FF82B240F26400C2F20000214663
:1021B0004FF4FA73FFF7DEFB6420FEF7C5F96FE713
:1021C000253034780000000025303464206C7578A8
:1021D000200D0A000FB4084B10B504A902AA0398F9
:1021E00000F032F8044602A9002000F05EFA204612
:1021F00010BC5DF814FB0000AB26000840F2013271
:1022000000204FF0E041FEF75AB90000024A0020DA
:102210001107FEF754B9000001FDFFFF02E008C8F6
:10222000121F08C1002AFAD170477047002001E050
:1022300001C1121F002AFBD170470000014908604C
:1022400070470000000000202DE9FF4F8DB00F46C1
:102250000546002606E025280BD0DDE90F12904741
:102260006D1C761C28780028F5D111B03046BDE8E9
:10227000F08F0024A246A1460122EC4900E004436D
:1022800015F8013F203B02FA03F00842F7D1287805
:102290002A2810D06FF02F022878A0F130010929E8
:1022A00014D80AEB8A0102EB410144F0020400EB6E
:1022B000010A6D1CF0E701CF5FEA000A03D544F480
:1022C0000054CAF1000A44F002046D1C28782E283C
:1022D00017D115F8010F44F004042A280ED06FF02E
:1022E0002F022878A0F1300109290AD809EB8901C9
:1022F00002EB410100EB01096D1CF2E757F8049B6A
:102300006D1C28786C280FD006DC4C2817D0682864
:102310000DD06A2814D104E0742810D07A280FD187
:102320000DE044F400140AE044F4801401E044F4A5
:1023300040146978814202D104F580146D1C6D1C33
:102340002A786E2A1FD00CDC632A31D004DC002AE4
:102350008BD0582A11D1A3E0642A68D0692A0CD105
:1023600065E0732A2ED004DC6F2A73D0702A04D162
:102370009BE0752A6FD0782A6ED01046DDE90F12E7
:102380009047761C50E1C4F30250022806D003287F
:1023900009D0042801CF09D0066045E101CFF1172B
:1023A000C0E9006140E101CF06803DE106703BE1FC
:1023B00017F8040B8DF8000000208DF80100EB46A3
:1023C000012003E057F804BB4FF0FF3061074FF0E6
:1023D000000102D40DE008F10101884649450FDAF9
:1023E0008045F8DB1BF808100029F4D108E008F15B
:1023F000010188468142FADB1BF808100029F6D15A
:10240000DDE90F23AAEB08008146214600F036F9EA
:10241000304400EB080604E0DDE90F121BF8010B65
:102420009047B8F10108F7D221464846F7E00A2163
:10243000C4F302534FF0000B0891022B04D001CFDC
:10244000C117032B09D00AE0FF1D27F00707F7E8A3
:10245000020108E032E01FE020E000B2C117042BC7
:1024600001D140B2C117031E71F1000307DA4FF02A
:10247000000CD0EB0C006CEB01012D2302E02305D6
:1024800004D52B238DF82430012303E0E30701D08A
:102490002023F7E7984658E00A2110E010210EE0CB
:1024A00010204FF0000B08900CE010214FF0000BB3
:1024B00044F004044FF00809089103E008214FF0AC
:1024C000000B0891C4F30253022B04D001CF00216A
:1024D000032B06D006E0FF1D27F00707F7E80201EF
:1024E00003E080B2042B00D1C0B24FF000082307F4
:1024F0002BD5702A07D0DDF820C08CF0100C5CEAD8
:102500000B0C05D00EE040238DF82430012308E0A9
:1025100050EA010306D030238DF824308DF82520B1
:1025200002239846DDF820C08CF0080C5CEA0B0C06
:102530000BD150EA010301D1630706D530238DF892
:1025400024304FF00108A9F10109582A04D038A21B
:102550000B9208AA0A920BE03AA2F9E75B46089AA6
:10256000FDF7EEFE0B9B9B5C0A9A521E0A921370BB
:1025700050EA0102F2D10A98ADEB000000F1200B05
:10258000600702D524F4803401E04FF00109D945F9
:1025900002DDA9EB0B0000E0002000EB0B01414441
:1025A0000890AAEB010AE00306D4DDE90F232146D7
:1025B000504600F063F806444FF0000908E009A90E
:1025C00011F80900DDE90F12904709F10109761CA5
:1025D000C145F4DBE0030CD5DDE90F23214650466D
:1025E00000F04CF8064404E0DDE90F12302090477B
:1025F000761C0899481E08900029F5DC08E00A9826
:102600000A990078491C0A91DDE90F129047761C5F
:10261000BBF10001ABF1010BF1DC21465046DDE9D5
:102620000F2300F019F806446D1C1BE60928010071
:102630003031323334353637383961626364656638
:1026400000000000303132333435363738394142FA
:1026500043444546000000002DE9F04104460025B2
:102660001E461746880404D405E039462020B047AA
:102670006D1C641EF9D52846BDE8F0812DE9F041B6
:10268000044600251E469046C80301D5302700E0C9
:102690002027880404D505E041463846B0476D1C24
:1026A000641EF9D52846BDE8F0810A68531C0B600A
:1026B000107070472DE9F04106460C4640F2FF7558
:1026C000174635EA14502BD0002213463046FDF74A
:1026D0000DFF25D03A4630462146FDF7F0FE06466E
:1026E0000C4635EA145010D0002213463046FDF750
:1026F000FDFE15D10220FFF7A1FDFFF787FD0A4679
:10270000214662F31E01BDE8F0810220FFF796FD2D
:10271000FFF774FD0A46214662F31E01BDE8F08111
:1027200030462146BDE8F0810102000000000000B3
:10273000000001020304060708090000000001026E
:10274000030402030405060708090A0B0C0D0E0F0B
:102750001010000078270008000000201000000082
:102760001C2200088827000810000020A004000098
:102770002C220008000000000000000000A24A0413
:0827800011000100100000002F
:0400000508000131BD
:00000001FF
